{
  "_format": "hh-sol-artifact-1",
  "contractName": "Teacher",
  "sourceName": "contracts/Teacher.sol",
  "abi": [
    {
      "inputs": [
        {
          "internalType": "contract IScore",
          "name": "_scoreAddr",
          "type": "address"
        }
      ],
      "stateMutability": "nonpayable",
      "type": "constructor"
    },
    {
      "inputs": [],
      "name": "score",
      "outputs": [
        {
          "internalType": "contract IScore",
          "name": "",
          "type": "address"
        }
      ],
      "stateMutability": "view",
      "type": "function"
    },
    {
      "inputs": [
        {
          "internalType": "address",
          "name": "_addr",
          "type": "address"
        },
        {
          "internalType": "uint256",
          "name": "_score",
          "type": "uint256"
        }
      ],
      "name": "teacherSetStudentScore",
      "outputs": [],
      "stateMutability": "nonpayable",
      "type": "function"
    }
  ],
  "bytecode": "0x608060405234801561001057600080fd5b506040516103e53803806103e58339818101604052810190610032919061008d565b806000806101000a81548173ffffffffffffffffffffffffffffffffffffffff021916908373ffffffffffffffffffffffffffffffffffffffff16021790555050610111565b600081519050610087816100fa565b92915050565b60006020828403121561009f57600080fd5b60006100ad84828501610078565b91505092915050565b60006100c1826100da565b9050919050565b60006100d3826100b6565b9050919050565b600073ffffffffffffffffffffffffffffffffffffffff82169050919050565b610103816100c8565b811461010e57600080fd5b50565b6102c5806101206000396000f3fe608060405234801561001057600080fd5b50600436106100365760003560e01c806305fee3811461003b578063efedc66914610057575b600080fd5b61005560048036038101906100509190610154565b610075565b005b61005f610106565b60405161006c91906101e6565b60405180910390f35b60008054906101000a900473ffffffffffffffffffffffffffffffffffffffff1673ffffffffffffffffffffffffffffffffffffffff166359738b8d83836040518363ffffffff1660e01b81526004016100d09291906101bd565b600060405180830381600087803b1580156100ea57600080fd5b505af11580156100fe573d6000803e3d6000fd5b505050505050565b60008054906101000a900473ffffffffffffffffffffffffffffffffffffffff1681565b60008135905061013981610261565b92915050565b60008135905061014e81610278565b92915050565b6000806040838503121561016757600080fd5b60006101758582860161012a565b92505060206101868582860161013f565b9150509250929050565b61019981610201565b82525050565b6101a88161023d565b82525050565b6101b781610233565b82525050565b60006040820190506101d26000830185610190565b6101df60208301846101ae565b9392505050565b60006020820190506101fb600083018461019f565b92915050565b600061020c82610213565b9050919050565b600073ffffffffffffffffffffffffffffffffffffffff82169050919050565b6000819050919050565b60006102488261024f565b9050919050565b600061025a82610213565b9050919050565b61026a81610201565b811461027557600080fd5b50565b61028181610233565b811461028c57600080fd5b5056fea2646970667358221220a401e36abcb453ceb7d9faebea131a378f55d60e299ed4a90b4e57b439a4f83b64736f6c63430008040033",
  "linkReferences": {},
  "deployedLinkReferences": {}
}