{
  "_format": "hh-sol-artifact-1",
  "contractName": "Score",
  "sourceName": "contracts/Score.sol",
  "abi": [
    {
      "inputs": [],
      "stateMutability": "nonpayable",
      "type": "constructor"
    },
    {
      "anonymous": false,
      "inputs": [
        {
          "indexed": true,
          "internalType": "address",
          "name": "sender",
          "type": "address"
        },
        {
          "indexed": true,
          "internalType": "address",
          "name": "newTeacher",
          "type": "address"
        },
        {
          "indexed": false,
          "internalType": "uint256",
          "name": "time",
          "type": "uint256"
        }
      ],
      "name": "AddTeacher",
      "type": "event"
    },
    {
      "anonymous": false,
      "inputs": [
        {
          "indexed": true,
          "internalType": "address",
          "name": "teacherAddr",
          "type": "address"
        },
        {
          "indexed": true,
          "internalType": "address",
          "name": "studentAddr",
          "type": "address"
        },
        {
          "indexed": false,
          "internalType": "uint256",
          "name": "score",
          "type": "uint256"
        },
        {
          "indexed": false,
          "internalType": "uint256",
          "name": "time",
          "type": "uint256"
        }
      ],
      "name": "StudentScore",
      "type": "event"
    },
    {
      "inputs": [
        {
          "internalType": "address",
          "name": "_addr",
          "type": "address"
        }
      ],
      "name": "addTeacher",
      "outputs": [],
      "stateMutability": "nonpayable",
      "type": "function"
    },
    {
      "inputs": [
        {
          "internalType": "address",
          "name": "_addr",
          "type": "address"
        },
        {
          "internalType": "uint256",
          "name": "_score",
          "type": "uint256"
        }
      ],
      "name": "setStudentScore",
      "outputs": [],
      "stateMutability": "nonpayable",
      "type": "function"
    },
    {
      "inputs": [
        {
          "internalType": "address",
          "name": "",
          "type": "address"
        }
      ],
      "name": "student",
      "outputs": [
        {
          "internalType": "uint256",
          "name": "",
          "type": "uint256"
        }
      ],
      "stateMutability": "view",
      "type": "function"
    },
    {
      "inputs": [
        {
          "internalType": "address",
          "name": "",
          "type": "address"
        }
      ],
      "name": "teacherAddr",
      "outputs": [
        {
          "internalType": "bool",
          "name": "",
          "type": "bool"
        }
      ],
      "stateMutability": "view",
      "type": "function"
    }
  ],
  "bytecode": "0x608060405234801561001057600080fd5b5060018060003373ffffffffffffffffffffffffffffffffffffffff1673ffffffffffffffffffffffffffffffffffffffff16815260200190815260200160002060006101000a81548160ff02191690831515021790555061068b806100776000396000f3fe608060405234801561001057600080fd5b506004361061004c5760003560e01c80632af38e34146100515780633bc6e3091461008157806359738b8d1461009d578063daadd00f146100b9575b600080fd5b61006b60048036038101906100669190610414565b6100e9565b60405161007891906104dd565b60405180910390f35b61009b60048036038101906100969190610414565b610109565b005b6100b760048036038101906100b2919061043d565b610254565b005b6100d360048036038101906100ce9190610414565b6103d2565b6040516100e09190610538565b60405180910390f35b60016020528060005260406000206000915054906101000a900460ff1681565b600160003273ffffffffffffffffffffffffffffffffffffffff1673ffffffffffffffffffffffffffffffffffffffff16815260200190815260200160002060009054906101000a900460ff16610195576040517f08c379a000000000000000000000000000000000000000000000000000000000815260040161018c90610518565b60405180910390fd5b60018060008373ffffffffffffffffffffffffffffffffffffffff1673ffffffffffffffffffffffffffffffffffffffff16815260200190815260200160002060006101000a81548160ff0219169083151502179055508073ffffffffffffffffffffffffffffffffffffffff163373ffffffffffffffffffffffffffffffffffffffff167f623f2f12277334cbba131e1bc37a1cca00bb01ffd1216afad46c2e41514563c0426040516102499190610538565b60405180910390a350565b600160003273ffffffffffffffffffffffffffffffffffffffff1673ffffffffffffffffffffffffffffffffffffffff16815260200190815260200160002060009054906101000a900460ff166102e0576040517f08c379a00000000000000000000000000000000000000000000000000000000081526004016102d790610518565b60405180910390fd5b6064811115610324576040517f08c379a000000000000000000000000000000000000000000000000000000000815260040161031b906104f8565b60405180910390fd5b806000808473ffffffffffffffffffffffffffffffffffffffff1673ffffffffffffffffffffffffffffffffffffffff168152602001908152602001600020819055508173ffffffffffffffffffffffffffffffffffffffff163373ffffffffffffffffffffffffffffffffffffffff167f125549727220c2ff5d6a50430034a670f7a59d413a178a2c879fe824ae14ec5583426040516103c6929190610553565b60405180910390a35050565b60006020528060005260406000206000915090505481565b6000813590506103f981610627565b92915050565b60008135905061040e8161063e565b92915050565b60006020828403121561042657600080fd5b6000610434848285016103ea565b91505092915050565b6000806040838503121561045057600080fd5b600061045e858286016103ea565b925050602061046f858286016103ff565b9150509250929050565b6104828161059f565b82525050565b6000610495601d8361057c565b91506104a0826105d5565b602082019050919050565b60006104b8600c8361057c565b91506104c3826105fe565b602082019050919050565b6104d7816105cb565b82525050565b60006020820190506104f26000830184610479565b92915050565b6000602082019050818103600083015261051181610488565b9050919050565b60006020820190508181036000830152610531816104ab565b9050919050565b600060208201905061054d60008301846104ce565b92915050565b600060408201905061056860008301856104ce565b61057560208301846104ce565b9392505050565b600082825260208201905092915050565b6000610598826105ab565b9050919050565b60008115159050919050565b600073ffffffffffffffffffffffffffffffffffffffff82169050919050565b6000819050919050565b7f73636f72652063616e6e6f74206265206c657373207468616e20313030000000600082015250565b7f6e6f20617574686f726974790000000000000000000000000000000000000000600082015250565b6106308161058d565b811461063b57600080fd5b50565b610647816105cb565b811461065257600080fd5b5056fea2646970667358221220575e6acf623a1601f8fa01b9b039b75f13b137038143f6339304498bd4eec83a64736f6c63430008040033",
  "linkReferences": {},
  "deployedLinkReferences": {}
}