{
  "_format": "hh-sol-artifact-1",
  "contractName": "Bank",
  "sourceName": "contracts/Bank.sol",
  "abi": [
    {
      "anonymous": false,
      "inputs": [
        {
          "indexed": true,
          "internalType": "address",
          "name": "addr",
          "type": "address"
        },
        {
          "indexed": false,
          "internalType": "uint256",
          "name": "amount",
          "type": "uint256"
        },
        {
          "indexed": false,
          "internalType": "uint256",
          "name": "time",
          "type": "uint256"
        }
      ],
      "name": "Recharge",
      "type": "event"
    },
    {
      "anonymous": false,
      "inputs": [
        {
          "indexed": true,
          "internalType": "address",
          "name": "addr",
          "type": "address"
        },
        {
          "indexed": false,
          "internalType": "uint256",
          "name": "amount",
          "type": "uint256"
        },
        {
          "indexed": false,
          "internalType": "uint256",
          "name": "time",
          "type": "uint256"
        }
      ],
      "name": "Withdraw",
      "type": "event"
    },
    {
      "inputs": [
        {
          "internalType": "address",
          "name": "_addr",
          "type": "address"
        }
      ],
      "name": "getUser",
      "outputs": [
        {
          "components": [
            {
              "internalType": "uint256",
              "name": "amount",
              "type": "uint256"
            },
            {
              "internalType": "uint256",
              "name": "time",
              "type": "uint256"
            }
          ],
          "internalType": "struct Bank.RechargeRecord[]",
          "name": "",
          "type": "tuple[]"
        }
      ],
      "stateMutability": "view",
      "type": "function"
    },
    {
      "inputs": [
        {
          "internalType": "address",
          "name": "",
          "type": "address"
        },
        {
          "internalType": "uint256",
          "name": "",
          "type": "uint256"
        }
      ],
      "name": "user",
      "outputs": [
        {
          "internalType": "uint256",
          "name": "amount",
          "type": "uint256"
        },
        {
          "internalType": "uint256",
          "name": "time",
          "type": "uint256"
        }
      ],
      "stateMutability": "view",
      "type": "function"
    },
    {
      "inputs": [],
      "name": "withdraw",
      "outputs": [],
      "stateMutability": "nonpayable",
      "type": "function"
    },
    {
      "stateMutability": "payable",
      "type": "receive"
    }
  ],
  "bytecode": "0x608060405234801561001057600080fd5b506107bd806100206000396000f3fe6080604052600436106100385760003560e01c806314feaa9d146101265780633ccfd60b146101645780636f77926b1461017b57610121565b36610121576000803373ffffffffffffffffffffffffffffffffffffffff1673ffffffffffffffffffffffffffffffffffffffff1681526020019081526020016000206040518060400160405280348152602001428152509080600181540180825580915050600190039060005260206000209060020201600090919091909150600082015181600001556020820151816001015550503373ffffffffffffffffffffffffffffffffffffffff167f9814dc9f6393a9d4e6e7dcbc345d42b6d3bcea700d48ec34f425191801e0b2af3442604051610117929190610624565b60405180910390a2005b600080fd5b34801561013257600080fd5b5061014d60048036038101906101489190610445565b6101b8565b60405161015b929190610624565b60405180910390f35b34801561017057600080fd5b506101796101f9565b005b34801561018757600080fd5b506101a2600480360381019061019d919061041c565b610341565b6040516101af91906105c2565b60405180910390f35b600060205281600052604060002081815481106101d457600080fd5b9060005260206000209060020201600091509150508060000154908060010154905082565b6000471161023c576040517f08c379a000000000000000000000000000000000000000000000000000000000815260040161023390610604565b60405180910390fd5b600047905060003373ffffffffffffffffffffffffffffffffffffffff1682604051610267906105ad565b60006040518083038185875af1925050503d80600081146102a4576040519150601f19603f3d011682016040523d82523d6000602084013e6102a9565b606091505b50509050806102ed576040517f08c379a00000000000000000000000000000000000000000000000000000000081526004016102e4906105e4565b60405180910390fd5b3373ffffffffffffffffffffffffffffffffffffffff167ff279e6a1f5e320cca91135676d9cb6e44ca8a08c0b88342bcdb1144f6511b5688342604051610335929190610624565b60405180910390a25050565b60606000808373ffffffffffffffffffffffffffffffffffffffff1673ffffffffffffffffffffffffffffffffffffffff168152602001908152602001600020805480602002602001604051908101604052809291908181526020016000905b828210156103e7578382906000526020600020906002020160405180604001604052908160008201548152602001600182015481525050815260200190600101906103a1565b505050509050919050565b60008135905061040181610759565b92915050565b60008135905061041681610770565b92915050565b60006020828403121561042e57600080fd5b600061043c848285016103f2565b91505092915050565b6000806040838503121561045857600080fd5b6000610466858286016103f2565b925050602061047785828601610407565b9150509250929050565b600061048d8383610560565b60408301905092915050565b60006104a48261065d565b6104ae8185610675565b93506104b98361064d565b8060005b838110156104ea5781516104d18882610481565b97506104dc83610668565b9250506001810190506104bd565b5085935050505092915050565b6000610504601883610691565b915061050f826106de565b602082019050919050565b6000610527602183610691565b915061053282610707565b604082019050919050565b600061054a600083610686565b915061055582610756565b600082019050919050565b604082016000820151610576600085018261058f565b506020820151610589602085018261058f565b50505050565b610598816106d4565b82525050565b6105a7816106d4565b82525050565b60006105b88261053d565b9150819050919050565b600060208201905081810360008301526105dc8184610499565b905092915050565b600060208201905081810360008301526105fd816104f7565b9050919050565b6000602082019050818103600083015261061d8161051a565b9050919050565b6000604082019050610639600083018561059e565b610646602083018461059e565b9392505050565b6000819050602082019050919050565b600081519050919050565b6000602082019050919050565b600082825260208201905092915050565b600081905092915050565b600082825260208201905092915050565b60006106ad826106b4565b9050919050565b600073ffffffffffffffffffffffffffffffffffffffff82169050919050565b6000819050919050565b7f7769746864726177207472616e73666572206661696c65640000000000000000600082015250565b7f536f7272792c20796f7572206372656469742069732072756e6e696e67206c6f60008201527f7700000000000000000000000000000000000000000000000000000000000000602082015250565b50565b610762816106a2565b811461076d57600080fd5b50565b610779816106d4565b811461078457600080fd5b5056fea2646970667358221220521d19b9ddea474271584a5f14e765e735184ac5d0127a9edb113e2b1626606864736f6c63430008040033",
  "linkReferences": {},
  "deployedLinkReferences": {}
}